S013000046726565646F6D5F52544F532E68657810
S113000000300020410E0000010C0000090C00002B
S1130010090C0000090C0000090C0000090C000088
S1130020090C0000090C0000090C0000290A00005A
S1130030090C0000090C0000510A0000D90B000053
S1130040090C0000090C0000090C0000090C000058
S1130050090C0000090C0000090C0000090C000048
S1130060090C0000090C0000090C0000090C000038
S1130070090C0000090C0000090C0000090C000028
S1130080090C0000090C0000090C0000090C000018
S1130090090C0000090C0000090C0000090C000008
S11300A0090C0000090C0000090C0000090C0000F8
S11300B0090C0000090C0000090C0000090C0000E8
S1130400FFFFFFFFFFFFFFFFFFFFFFFF7EFFFFFF79
S1130410002934D00123002210B488422CD30124B3
S11304202407A14204D2814202D209011B01F8E748
S1130430E400A14204D2814202D249005B00F8E701
S1130440884201D3401A1A434C08A04202D3001B2D
S11304505C0822438C08A04202D3001B9C08224360
S1130460CC08A04202D3001BDC082243002803D09E
S11304701B0901D00909E3E7101C10BC70470028D0
S113048001D00020C04307B4024802A140180290E2
S113049003BDC046190000000029F0D003B5FFF7E2
S11304A0B9FF0EBC4243891A1847C0467047C0467C
S11304B008B5044B1868012801D900F075FA00F05A
S11304C026FDF6E740F0FF1F0D4B10B51A68041C1B
S11304D050600C4801688C4206D20B4C20681968A5
S11304E0043100F0F2FA0AE0084A1068196804318D
S11304F000F0EBFA064B1868844200D21C6010BD71
S113050058F0FF1F70F0FF1F74F0FF1F20F0FF1F53
S113051000F0FF1FF7B50A9D071C161C0193002865
S113052003D1502080F31188FEE70899002903D0F5
S1130530502080F31188FEE7382000F0EFFA041E03
S11305407DD0002D03D1B00000F0E8FA051C25632E
S1130550002D03D1201C00F005FB70E0B200281C24
S1130560A52100F0F7FC211C226B34310025013E4B
S11305700D70B000E562251D16180723281C9E4344
S113058000F093FA201C183000F08FFA0120A061CB
S1130590391C24616462301C019A00F0DFF9099F60
S11305A02060002F00D03C6000F0E6F9254B264E79
S11305B01A68264F01321A603168002919D1346053
S11305C0196801291DD1224800F064FA214800F07D
S11305D061FA214800F05EFA204800F05BFA2048F6
S11305E000F058FA1F481B4B1F491B4A03600A605E
S11305F007E03868002804D13368DA6A002A00D199
S113060034601A48E46A03689C4200D90460184ABA
S1130610184811680368013111609C4200D90460D4
S1130620142254430A490819291C00F041FA00F025
S1130630ADF93D680120002D03D0336801E00126A7
S11306407042FEBD98F0FF1F58F0FF1F24F0FF1FFB
S113065040F0FF1F80F0FF1F2CF0FF1F5CF0FF1F16
S11306600CF0FF1F20F0FF1F74F0FF1F9CF0FF1F12
S11306707CF0FF1F78F0FF1F1FB50024231C00949B
S11306800194029403940C480C496422FFF742FF3E
S1130690031E012B09D1502080F31188084A094810
S11306A01360046000F0A0F905E0002803D1502095
S11306B080F31188FEE71FBDB1040000201700007D
S11306C024F0FF1F70F0FF1F024B1A6801321A60FA
S11306D07047C04654F0FF1FF8B5334B1868002824
S11306E055D1324C2568261C013525602768002F1A
S11306F01ED12F4B18680168002903D0502080F3C5
S11307001188FEE72B4A1C6815682B4F1D60146086
S113071038682A4A0130386019680C68002C02D104
S11307200121484203E01B68DD68EF6878681060C7
S1130730224F34683A6894422FD31D4B1D682868B1
S1130740002802D10126734206E01968CC68E468E7
S1130750326863689A4201D23B601EE0251D281C62
S113076000F0CBF9A06A002803D0201C183000F058
S1130770C4F9134BE46A19688C4200D91C60142232
S113078054431048291C001900F092F9D5E70E498A
S11307900A6801320A6000F0B9FB0B4F3D68002D76
S11307A001D100F0B3FBF8BD54F0FF1F70F0FF1F40
S11307B020F0FF1F74F0FF1F28F0FF1F00F0FF1F41
S11307C078F0FF1F40F0FF1F08F0FF1F70B52C4C9E
S11307D02368002B03D1502080F31188FEE700F03A
S11307E0CBF82068013820602568002D01D0002452
S11307F041E024490A68002AF9D0234E3468002CC9
S11308001ED0F068C468201C1830261D00F075F94D
S1130810301C00F072F91D4AE36A11688B4200D95A
S11308201360142043431A4A311CD01800F040F9D5
S1130830184EE46A3368D96A8C42DED30125DCE7BA
S1130840154E3368002B08D03168002907D0FFF714
S113085043FF3368013B3360F6E7012D06D10F4EA9
S113086000223260012400F09FF804E00B4D286858
S11308700128BCD1F3E700F089F8201C70BDC04604
S113088054F0FF1F98F0FF1F5CF0FF1F78F0FF1F6C
S113089040F0FF1F58F0FF1F08F0FF1F94F0FF1FE8
S11308A010B5041E02D100F07FF810E0FFF70CFF32
S11308B0074B0849186824180868043000F01DF92B
S11308C0201CFFF701FEFFF781FF0028EBD010BDCD
S11308D070F0FF1F58F0FF1F1B4B10B5186800285D
S11308E003D01A48012202602DE0194C22682168C5
S11308F010680B6B984208D820682168343100F0E6
S113090000FB02E01368013B1360124A14231068D1
S1130910114958434058002806D111680029F1D1E3
S1130920502080F31188FEE712685343CB185968AE
S11309301A1C486808325860904201D141685960D5
S11309405B68D868206010BD54F0FF1F94F0FF1F4F
S113095058F0FF1F78F0FF1F40F0FF1F10B58024F0
S1130960031F64041C60043B1960043B00211960EC
S1130970143B40381A6010BD502080F31188024B9C
S11309801A6801321A60704704F0FF1F054A00B567
S11309901368013B1360002B02D1002080F31188FF
S11309A000BDC04604F0FF1F8022024B50051860B2
S11309B07047C04604ED00E08022064B50051860E5
S11309C0502080F31188FFF787FE002080F3118800
S11309D008BDC04604ED00E00020006880F30888EC
S11309E062B600DFC046704738B50C4CF02322686D
S11309F01804002510430A492060281C0D6000F0EB
S1130A00B9F8084A2168F02310601A060A432260E4
S1130A1000F0D8F8FFF7E0FF281C38BD20ED00E017
S1130A2004F0FF1FA0F0FF1F084B1968086810307E
S1130A30F0C8A046A946B246BB4680F309882038D0
S1130A40F0C871460D2001430847C04658F0FF1F07
S1130A50EFF309800E4B1A6820381060F0C044464A
S1130A604D4656465F46F0C008B572B6FFF734FFF0
S1130A7062B60CBC116808681030F0C8A046A946DC
S1130A80B246BB4680F309882038F0C81847C046F0
S1130A9058F0FF1F031C0122083351428160436058
S1130AA0C360036100230360704700230361704740
S1130AB043685A688B604A605A6891605960416023
S1130AC0086101680131016070470A68031C10B5B0
S1130AD00833541C01D1036905E05C68246894421E
S1130AE001D85B68F9E75C680861A1604C605960F3
S1130AF08B6001680131016010BD4368816800B5F5
S1130B0099608268536003695968814200D15A60D0
S1130B100022026118680138186000BD38B5072347
S1130B20051C184201D09D430835FFF7CDFD0A4A44
S1130B300A4910682D188D4205D8854203D9084BFF
S1130B4015601C1800E00024FFF740FE002C01D1C2
S1130B5000F0DEF9201C38BDA4F0FF1F4B1D00007F
S1130B60A8F0FF1F00B5002803D0502080F311889F
S1130B70FEE700BD38B5041C0420FFF7CFFF0C4B83
S1130B800C4918600C4B00220460D2251A6059608D
S1130B900A499A602A018C58250280242D0A2406C9
S1130BA02C438C5007211960054B186038BDC04692
S1130BB0F80D00203233030010E000E000E000E014
S1130BC0FC0D0020034B01211A6800200A431A601F
S1130BD07047C04610E000E008B5054B05491A68A7
S1130BE0054B186801401960106800F007F808BD4B
S1130BF0F80D0020FFFFFEFF10E000E0FFF7DCFE31
S1130C0008B500F07DF908BDFFBE7047214B224AAC
S1130C10224910B5D1508824214B620100209850FC
S1130C20C02120488C02204A1C509C58C021C90075
S1130C30214399501D4A082194780C4202D094789B
S1130C40214391701A4900221A505C5819482040D7
S1130C5058501C681848204018605C5817482040B9
S1130C608024640420435850154B062119705A708F
S1130C70D8781F24134904408020DC7008701A714E
S1130C805A719A79D106FCD59C790C200442FBD187
S1130C9010BDC046080D000000E000E000000000A8
S1130CA000700440441000003810000000D00740D9
S1130CB004100000FFFFFEFFFFFFF3FFFFFFFFFC38
S1130CC000400640005006401F4A38B51F481369CB
S1130CD0E0210340C9000B4313611D4B1F255C79C0
S1130CE0AC435C711C790725AC431C71194B73250B
S1130CF01C78AC4350252C431C705C786325AC43B2
S1130D0040252C435C709C781925AC439C70124B95
S1130D1000241C70156D284001431165C1200F4A41
S1130D208300D5580E49201C2940D15000F052F8B8
S1130D300C4D686800F074F8201C00F015F8A868E1
S1130D4000F038F838BDC04600900440FFF8FFFEBC
S1130D5000F0074000D0074000E0074000E100E059
S1130D60FFFF00FFFC0D002010B5041C0420FFF75A
S1130D70D5FE0B4B80225969046014030C435C615B
S1130D801968084A0A401A60074B084ADC6C80213B
S1130D9022404C002243DA64054B986010BDC046E3
S1130DA040F00F40FFFFF7FF00A00440FFF8FFFEF4
S1130DB0FC0D00208022024B100358607047C0468F
S1130DC040F00FF88022024B1003D8607047C046F1
S1130DD040F00FF810B5041C0420FFF79FFE0B4BE6
S1130DE0802259690460D4020C435C611968084A82
S1130DF00A401A60074B084A9C6C802122404C0030
S1130E0022439A64054B586010BDC04640F00F4021
S1130E10FFFFFBFF00A00440FFF8FFFEFC0D0020D5
S1130E208022024BD00258607047C04640F00FF851
S1130E308022024BD002D8607047C04640F00FF8C1
S1130E4000F05EFCFFF7E2FE0848094A0021121A8E
S1130E5000F080F800F02CFC00F0C8FB00F05EFC11
S1130E600449002000F022F800F058F808F0FF1FB1
S1130E70240E0020080E002000B5FEE708B5044B40
S1130E809868FFF79FFF6920FFF70AFDF7E7C04660
S1130E90FC0D002008B5044B5868FFF7C9FF642017
S1130EA0FFF7FEFCF7E7C046FC0D00201FB5002449
S1130EB0FFF70AFF00940194029403940C480D492F
S1130EC06422231CFFF726FB012800D0FEE70094D0
S1130ED0019402940394084808496422231CFFF7F0
S1130EE019FB012800D0FEE7FFF7C6FBFEE7C0466A
S1130EF0950E0000251700007D0E00002B17000042
S1130F00704700B5502080F31188FEE770477047A2
S1130F1000B5502080F31188FEE7000038B5051CA9
S1130F2000F0E0FB00F086FB084C2368002B02D0A5
S1130F30984700202060064C2168002902D0884789
S1130F4000222260281CFFF797FF38BD0C0E0020FA
S1130F50100E002010B5041C00F0FCFA201C10BD7B
S1130F6000B5C9B20378421C002B03D08B4205D0D4
S1130F70101CF7E74B4259414942084000BD00B5F7
S1130F80431E01331A78002AFBD1181A00BD000051
S1130F90F0B589B001901F1C0EAB0391079202902B
S1130FA01A78081C01990FAC0138002604922578A0
S1130FB00670B14217D1119BB34214D1049B002B8C
S1130FC001D06F2D2FD0642D02D0692D00D0A8E060
S1130FD0022F02D1039802389FE0012F00D0A0E035
S1130FE00398023894E0692D0ED004D8582D16D0F9
S1130FF0642D1CD108E0752D04D0782D0FD06F2DF1
S113100015D110E0002712E0019A002A0FDA80249B
S11310102606B2420DD051420191029109E0002707
S11310203E1C102407E000273E1C082403E0002691
S113103000E001260A240090002006900298211C5A
S1131040FFF72AFA02980591211CFFF7E1F9059AA6
S11310500290092A01D8303205E0059A3732782DFA
S113106001D1059A57320098069B02990138D2B2F1
S1131070009002700133002901D00693DEE7011CC1
S1131080082C0BD10498002808D0302A06D00B1C59
S1131090013B302200931A70069B02330798022802
S11310A00FD1002E01D1002F02D0109901391091D7
S11310B0109A1192102C04D10498002801D0023AFD
S11310C0119203990098119A091A8918164A9142A3
S11310D026DC0099CA181199121A8A4203DA0138D7
S11310E030220270F5E7102C0AD1049C002C07D0A2
S11310F0019B002B04D0421E302102381570017070
S1131100002E02D001382D2108E0012F02D1013830
S11311102B2103E0022F04D101382021017000E0CB
S1131120002009B0F0BDC046FD010000F0B5B64C8A
S11311301E1CA5446B460A900B913E3320210020CF
S1131140197008920590089A1578002D00D1F9E1DC
S113115008982521FFF704FF0C90002811D1089866
S1131160FFF70DFF0599021C08180590002A00D10D
S1131170E8E10B9808990A9EB047002800D0E1E105
S1131180CEE00C9F089C05993A1B8B180593002A06
S11311900CD10C980C9A437801321D1E252D0CD0CD
S11311A000270121BC460D97069119E00B98089978
S11311B00A9DA8470028ECD1B2E00C9A0021023223
S11311C001240892079106943DE02B2B0BDC202B85
S11311D010D0232B00D0BAE001239C4601321378AF
S11311E02B2BF2D1ABE12D2B00D1A5E1302B00D07C
S11311F0ADE004E00D9D012DF0D00220A0E1069C9D
S1131200002CEBD002200690E8E737680436FB4355
S1131210D80F937802321C1C683C0021042C00D89F
S1131220C1E0DDB26E2B00D0C7E0013208926E2D12
S113123000D149E100D900E1632D00D159E107D87B
S1131240252D00D0F3E010AC25700996012619E095
S1131250642D00D0EEE0321D09923068032900D0DD
S1131260F6E007996646009601950291039790A9C6
S1131270069A0D9BFFF78CFE041E00D13FE1634FDD
S11312806F443E1A069800283CD02023022800D13F
S113129030236F463E373B7022782B2A04D02D2A08
S11312A002D0371C202A0BD1371C302B08D10B98C5
S11312B0211C01220A9B9847002831D00134771E53
S11312C0069902290ED1612D01D0412D0AD1012F99
S11312D026DD0B98211C02220A9DA84700281FD056
S11312E0023F0234351C079EB54209DA69460B9861
S11312F03E3101220A9B9847002811D00135F2E7BC
S11313003E1C00E0351C002E03D10698002819D19C
S113131015E0211C0B98321C0A9CA0470028F4D12C
S11313200122554205950DE169463F3120240B9871
S113133001220A9F0C70B8470028F1D00135079F9D
S1131340BD42F1DB059A53190593099EFBE6171C70
S11313502A2B00D0E1E0341D36680796002E03DA0C
S113136073420025079306957B780132261C284F8B
S11313700798B84200DDC2E02E2B11D153782A2BF6
S113138000D142E7013200271C1C303C092C05D84F
S11313900A214F4301323F191378F5E701203AE758
S11313A00027381C37E71B4D295D1B4D2C57002C9B
S11313B000D136E75378013233E76E2B0ADC632B16
S11313C02CD002DC582B30D115E0642B13D0692BC0
S11313D02BD110E0732B23D009DC6F2B0BD0702B97
S11313E023D101237825082703219C461DE7752B6B
S11313F001D0782B19D1002815D0069C022C00D0DE
S113140013E70123069310E7BCFDFFFF3F02000032
S1131410FD0100003617000031170000002804D138
S1131420002902D101E70127FFE6FF25FDE6582D3B
S113143065D116E0692D62D10DE7732D23D002D852
S11314406F2D5CD10DE0752D0BD0782D57D108E0B0
S1131450022901D100B204E7012900D001E740B21A
S1131460FFE6341D09943068032906D0022901D10E
S113147080B202E0012900D1C0B2079E6246009208
S113148001950296F2E63468311D0991002C00D1D1
S11314902F4C6346002B07D026780134002800D156
S11314A0F0E6BE4237DCEDE6002808D0201C614699
S11314B03A1C00F08EF800282DD0061BE2E6201C12
S11314C0FFF75DFD061CDDE6351D0995346802292C
S11314D007D003290AD0002900D036E705982060F8
S11314E033E76F461421CB5B23802EE7059A2260F5
S11314F02BE73368301D10AC09902370A6E60C98D6
S1131500FFF73DFD059E021C35180595002819D0EE
S11315100B980C992FE63E1CB4E600240794191C82
S11315203039092900D922E7079D0A236B43013288
S1131530581807901378F2E7002706974EE6012023
S11315400D904BE605989124A400A544F0BDC04637
S11315502A17000030B5C9B2031C1F2A31D94442EE
S11315600323234005D0D21AC51801700130A842C4
S1131570FBD1002905D00D060C042C430B0221439A
S113158019435409031C002C0ED0251C013D19607D
S113159059609960D960196159619961D9612033A1
S11315A0002DF3D16301C318D006400F07D0041CEB
S11315B01D1C013C02C5002CFBD180001B18032418
S11315C022409D18002A03D019700133AB42FBD18D
S11315D030BD00B5C9B28218904205D003780130FD
S11315E08B42F9D1013800E0002000BD10B50B4C4E
S11315F00B4B9C4202D001CC8047F9E7094C0A48C6
S1131600844202D008CC9847F9E7084C08498C4238
S113161002D004CC9047F9E710BDC0463C17000047
S11316203C1700003C1700003C1700003C1700006A
S11316303C17000010B5084C084B9C4202D004CC67
S11316409047F9E7064C0748844203D0043C2168DC
S11316508847F8E710BDC0463C1700003C1700005F
S11316603C1700003C17000000B588421FD0002A38
S11316701DD00323194207D1184205D19A4203D938
S113168008C9043A08C0F2E70123194209D11842F3
S113169007D19A4205D90B88023A038002310230FD
S11316A0E5E70B78013A037001310130DFE700BD53
S11316B038B50B4D002D11D000242B1919680029C1
S11316C006D02B1958689A68FFF7CEFF0C34F4E75C
S11316D05A68002AF5D198680028F2D138BDC0466E
S11316E044170000054B10B51C68002C04D0A068FA
S11316F0616888472468F8E710BDC046200E0020C2
S1131700054B181C002805D0854681B00020C04335
S1131710009001B0F746704700300020F74670474C
S113172049444C45005461736B31005461736B320E
S10F1730000100000001020000000300A2
S10B173CFFFFFFFFAAAAAAAAFD
S11317443C17000000F0FF1F080000000000000028
S10B1754000000000000000089
S9030E41AD
